{
  "contractName": "Certificate",
  "abi": [
    {
      "anonymous": false,
      "inputs": [
        {
          "indexed": false,
          "internalType": "bytes32",
          "name": "certificateId",
          "type": "bytes32"
        }
      ],
      "name": "GeneratedCertificate",
      "type": "event"
    },
    {
      "inputs": [
        {
          "internalType": "string",
          "name": "id",
          "type": "string"
        },
        {
          "internalType": "string",
          "name": "organization_name",
          "type": "string"
        },
        {
          "internalType": "string",
          "name": "candidate_name",
          "type": "string"
        },
        {
          "internalType": "string",
          "name": "position",
          "type": "string"
        },
        {
          "internalType": "string",
          "name": "contest_name",
          "type": "string"
        },
        {
          "internalType": "uint256",
          "name": "date",
          "type": "uint256"
        }
      ],
      "name": "generateCertificate",
      "outputs": [],
      "stateMutability": "nonpayable",
      "type": "function"
    },
    {
      "inputs": [
        {
          "internalType": "string",
          "name": "_id",
          "type": "string"
        }
      ],
      "name": "getData",
      "outputs": [
        {
          "internalType": "string",
          "name": "",
          "type": "string"
        },
        {
          "internalType": "string",
          "name": "",
          "type": "string"
        },
        {
          "internalType": "string",
          "name": "",
          "type": "string"
        },
        {
          "internalType": "string",
          "name": "",
          "type": "string"
        },
        {
          "internalType": "uint256",
          "name": "",
          "type": "uint256"
        }
      ],
      "stateMutability": "view",
      "type": "function"
    }
  ],
  "bytecode": "0x608060405234801561000f575f80fd5b50610b3d8061001d5f395ff3fe608060405234801561000f575f80fd5b5060043610610034575f3560e01c806395b76f6814610038578063ae55c88814610054575b5f80fd5b610052600480360381019061004d91906105bb565b610088565b005b61006e600480360381019061006991906106d0565b61016e565b60405161007f9594939291906107a0565b60405180910390f35b5f61009287610415565b90506040518060a00160405280868152602001878152602001858152602001848152602001838152505f808381526020019081526020015f205f820151815f0190816100de9190610a07565b5060208201518160010190816100f49190610a07565b50604082015181600201908161010a9190610a07565b5060608201518160030190816101209190610a07565b50608082015181600401559050507f43491680c15de6325f6000b5b3d37482d701d3bf7fddbe9b8407e1ea8c4e58a68160405161015d9190610aee565b60405180910390a150505050505050565b6060806060805f8061017f87610415565b90505f805f8381526020019081526020015f206040518060a00160405290815f820180546101ac9061083a565b80601f01602080910402602001604051908101604052809291908181526020018280546101d89061083a565b80156102235780601f106101fa57610100808354040283529160200191610223565b820191905f5260205f20905b81548152906001019060200180831161020657829003601f168201915b5050505050815260200160018201805461023c9061083a565b80601f01602080910402602001604051908101604052809291908181526020018280546102689061083a565b80156102b35780601f1061028a576101008083540402835291602001916102b3565b820191905f5260205f20905b81548152906001019060200180831161029657829003601f168201915b505050505081526020016002820180546102cc9061083a565b80601f01602080910402602001604051908101604052809291908181526020018280546102f89061083a565b80156103435780601f1061031a57610100808354040283529160200191610343565b820191905f5260205f20905b81548152906001019060200180831161032657829003601f168201915b5050505050815260200160038201805461035c9061083a565b80601f01602080910402602001604051908101604052809291908181526020018280546103889061083a565b80156103d35780601f106103aa576101008083540402835291602001916103d3565b820191905f5260205f20905b8154815290600101906020018083116103b657829003601f168201915b505050505081526020016004820154815250509050805f0151816020015182604001518360600151846080015196509650965096509650505091939590929450565b5f808290505f81510361042d575f801b915050610436565b60208301519150505b919050565b5f604051905090565b5f80fd5b5f80fd5b5f80fd5b5f80fd5b5f601f19601f8301169050919050565b7f4e487b71000000000000000000000000000000000000000000000000000000005f52604160045260245ffd5b61049a82610454565b810181811067ffffffffffffffff821117156104b9576104b8610464565b5b80604052505050565b5f6104cb61043b565b90506104d78282610491565b919050565b5f67ffffffffffffffff8211156104f6576104f5610464565b5b6104ff82610454565b9050602081019050919050565b828183375f83830152505050565b5f61052c610527846104dc565b6104c2565b90508281526020810184848401111561054857610547610450565b5b61055384828561050c565b509392505050565b5f82601f83011261056f5761056e61044c565b5b813561057f84826020860161051a565b91505092915050565b5f819050919050565b61059a81610588565b81146105a4575f80fd5b50565b5f813590506105b581610591565b92915050565b5f805f805f8060c087890312156105d5576105d4610444565b5b5f87013567ffffffffffffffff8111156105f2576105f1610448565b5b6105fe89828a0161055b565b965050602087013567ffffffffffffffff81111561061f5761061e610448565b5b61062b89828a0161055b565b955050604087013567ffffffffffffffff81111561064c5761064b610448565b5b61065889828a0161055b565b945050606087013567ffffffffffffffff81111561067957610678610448565b5b61068589828a0161055b565b935050608087013567ffffffffffffffff8111156106a6576106a5610448565b5b6106b289828a0161055b565b92505060a06106c389828a016105a7565b9150509295509295509295565b5f602082840312156106e5576106e4610444565b5b5f82013567ffffffffffffffff81111561070257610701610448565b5b61070e8482850161055b565b91505092915050565b5f81519050919050565b5f82825260208201905092915050565b5f5b8381101561074e578082015181840152602081019050610733565b5f8484015250505050565b5f61076382610717565b61076d8185610721565b935061077d818560208601610731565b61078681610454565b840191505092915050565b61079a81610588565b82525050565b5f60a0820190508181035f8301526107b88188610759565b905081810360208301526107cc8187610759565b905081810360408301526107e08186610759565b905081810360608301526107f48185610759565b90506108036080830184610791565b9695505050505050565b7f4e487b71000000000000000000000000000000000000000000000000000000005f52602260045260245ffd5b5f600282049050600182168061085157607f821691505b6020821081036108645761086361080d565b5b50919050565b5f819050815f5260205f209050919050565b5f6020601f8301049050919050565b5f82821b905092915050565b5f600883026108c67fffffffffffffffffffffffffffffffffffffffffffffffffffffffffffffffff8261088b565b6108d0868361088b565b95508019841693508086168417925050509392505050565b5f819050919050565b5f61090b61090661090184610588565b6108e8565b610588565b9050919050565b5f819050919050565b610924836108f1565b61093861093082610912565b848454610897565b825550505050565b5f90565b61094c610940565b61095781848461091b565b505050565b5b8181101561097a5761096f5f82610944565b60018101905061095d565b5050565b601f8211156109bf576109908161086a565b6109998461087c565b810160208510156109a8578190505b6109bc6109b48561087c565b83018261095c565b50505b505050565b5f82821c905092915050565b5f6109df5f19846008026109c4565b1980831691505092915050565b5f6109f783836109d0565b9150826002028217905092915050565b610a1082610717565b67ffffffffffffffff811115610a2957610a28610464565b5b610a33825461083a565b610a3e82828561097e565b5f60209050601f831160018114610a6f575f8415610a5d578287015190505b610a6785826109ec565b865550610ace565b601f198416610a7d8661086a565b5f5b82811015610aa457848901518255600182019150602085019450602081019050610a7f565b86831015610ac15784890151610abd601f8916826109d0565b8355505b6001600288020188555050505b505050505050565b5f819050919050565b610ae881610ad6565b82525050565b5f602082019050610b015f830184610adf565b9291505056fea2646970667358221220e1f4fbd184bdae45a4e6d2ae43f2703cc1fb8e5fa09c27886ea119b1241a922764736f6c63430008150033",
  "immutableReferences": {},
  "source": "// SPDX-License-Identifier: SEE LICENSE IN LICENSE\npragma solidity >=0.4.24;\n\ncontract Certificate{\n    struct certificate{\n        string candidate_name;\n        string organization_name;\n        string position;\n        string contest_name;\n        uint256 date;\n    }\n\n    mapping (bytes32 => certificate) certificates;\n\n    event GeneratedCertificate(bytes32 certificateId);\n\n    function stringTobytes32(string memory source) private pure returns (bytes32 result) {\n        bytes memory tempEmptyStringTest = bytes(source);\n        if (tempEmptyStringTest.length == 0) {\n            return 0x0;\n        }\n        assembly {\n                result := mload(add(source, 32))\n        }\n    }\n\n    function generateCertificate(\n        string memory id,\n        string memory organization_name,\n        string memory candidate_name,\n        string memory position,\n        string memory contest_name,\n        uint256 date\n    ) public {\n        bytes32 _id = stringTobytes32(id);\n        certificates[_id] = certificate(candidate_name, organization_name, position, contest_name, date);\n        emit GeneratedCertificate(_id);\n    }\n\n    function getData(string memory _id) public view returns(string memory, string memory, string memory, string memory, uint256) {\n        bytes32 byte_id = stringTobytes32(_id);\n        certificate memory temp = certificates[byte_id];\n        return (temp.candidate_name, temp.organization_name, temp.position, temp.contest_name, temp.date);\n    }\n}",
  "sourcePath": "/Users/naveenkumar/SIH/contracts/test.sol",
  "compiler": {
    "name": "solc",
    "version": "0.8.21+commit.d9974bed.Emscripten.clang"
  },
  "schemaVersion": "3.4.16",
  "updatedAt": "2023-09-26T21:14:44.400Z",
  "devdoc": {
    "kind": "dev",
    "methods": {},
    "version": 1
  },
  "userdoc": {
    "kind": "user",
    "methods": {},
    "version": 1
  }
}